{
  "abi": [
    {
      "inputs": [],
      "stateMutability": "nonpayable",
      "type": "constructor"
    },
    {
      "inputs": [
        {
          "internalType": "address",
          "name": "spender",
          "type": "address"
        },
        {
          "internalType": "uint256",
          "name": "allowance",
          "type": "uint256"
        },
        {
          "internalType": "uint256",
          "name": "needed",
          "type": "uint256"
        }
      ],
      "name": "ERC20InsufficientAllowance",
      "type": "error"
    },
    {
      "inputs": [
        {
          "internalType": "address",
          "name": "sender",
          "type": "address"
        },
        {
          "internalType": "uint256",
          "name": "balance",
          "type": "uint256"
        },
        {
          "internalType": "uint256",
          "name": "needed",
          "type": "uint256"
        }
      ],
      "name": "ERC20InsufficientBalance",
      "type": "error"
    },
    {
      "inputs": [
        {
          "internalType": "address",
          "name": "approver",
          "type": "address"
        }
      ],
      "name": "ERC20InvalidApprover",
      "type": "error"
    },
    {
      "inputs": [
        {
          "internalType": "address",
          "name": "receiver",
          "type": "address"
        }
      ],
      "name": "ERC20InvalidReceiver",
      "type": "error"
    },
    {
      "inputs": [
        {
          "internalType": "address",
          "name": "sender",
          "type": "address"
        }
      ],
      "name": "ERC20InvalidSender",
      "type": "error"
    },
    {
      "inputs": [
        {
          "internalType": "address",
          "name": "spender",
          "type": "address"
        }
      ],
      "name": "ERC20InvalidSpender",
      "type": "error"
    },
    {
      "inputs": [],
      "name": "InsufficientBalance",
      "type": "error"
    },
    {
      "inputs": [],
      "name": "ItemNotFound",
      "type": "error"
    },
    {
      "inputs": [],
      "name": "NotOwner",
      "type": "error"
    },
    {
      "anonymous": false,
      "inputs": [
        {
          "indexed": true,
          "internalType": "address",
          "name": "owner",
          "type": "address"
        },
        {
          "indexed": true,
          "internalType": "address",
          "name": "spender",
          "type": "address"
        },
        {
          "indexed": false,
          "internalType": "uint256",
          "name": "value",
          "type": "uint256"
        }
      ],
      "name": "Approval",
      "type": "event"
    },
    {
      "anonymous": false,
      "inputs": [
        {
          "indexed": true,
          "internalType": "address",
          "name": "from",
          "type": "address"
        },
        {
          "indexed": true,
          "internalType": "address",
          "name": "to",
          "type": "address"
        },
        {
          "indexed": false,
          "internalType": "uint256",
          "name": "value",
          "type": "uint256"
        }
      ],
      "name": "Transfer",
      "type": "event"
    },
    {
      "inputs": [
        {
          "internalType": "uint256",
          "name": "",
          "type": "uint256"
        }
      ],
      "name": "IdToGameItemsInfo",
      "outputs": [
        {
          "internalType": "address",
          "name": "owner",
          "type": "address"
        },
        {
          "internalType": "string",
          "name": "name",
          "type": "string"
        },
        {
          "internalType": "uint256",
          "name": "amount",
          "type": "uint256"
        }
      ],
      "stateMutability": "view",
      "type": "function"
    },
    {
      "inputs": [
        {
          "internalType": "address",
          "name": "owner",
          "type": "address"
        },
        {
          "internalType": "address",
          "name": "spender",
          "type": "address"
        }
      ],
      "name": "allowance",
      "outputs": [
        {
          "internalType": "uint256",
          "name": "",
          "type": "uint256"
        }
      ],
      "stateMutability": "view",
      "type": "function"
    },
    {
      "inputs": [
        {
          "internalType": "address",
          "name": "spender",
          "type": "address"
        },
        {
          "internalType": "uint256",
          "name": "value",
          "type": "uint256"
        }
      ],
      "name": "approve",
      "outputs": [
        {
          "internalType": "bool",
          "name": "",
          "type": "bool"
        }
      ],
      "stateMutability": "nonpayable",
      "type": "function"
    },
    {
      "inputs": [
        {
          "internalType": "address",
          "name": "_account",
          "type": "address"
        }
      ],
      "name": "balanceOf",
      "outputs": [
        {
          "internalType": "uint256",
          "name": "",
          "type": "uint256"
        }
      ],
      "stateMutability": "view",
      "type": "function"
    },
    {
      "inputs": [
        {
          "internalType": "uint256",
          "name": "_amount",
          "type": "uint256"
        }
      ],
      "name": "burn",
      "outputs": [],
      "stateMutability": "nonpayable",
      "type": "function"
    },
    {
      "inputs": [
        {
          "internalType": "string",
          "name": "_name",
          "type": "string"
        },
        {
          "internalType": "uint256",
          "name": "_amount",
          "type": "uint256"
        }
      ],
      "name": "createGameItemsInfo",
      "outputs": [],
      "stateMutability": "nonpayable",
      "type": "function"
    },
    {
      "inputs": [],
      "name": "decimals",
      "outputs": [
        {
          "internalType": "uint8",
          "name": "",
          "type": "uint8"
        }
      ],
      "stateMutability": "view",
      "type": "function"
    },
    {
      "inputs": [
        {
          "internalType": "address",
          "name": "to",
          "type": "address"
        },
        {
          "internalType": "uint256",
          "name": "amount",
          "type": "uint256"
        }
      ],
      "name": "mint",
      "outputs": [],
      "stateMutability": "nonpayable",
      "type": "function"
    },
    {
      "inputs": [],
      "name": "name",
      "outputs": [
        {
          "internalType": "string",
          "name": "",
          "type": "string"
        }
      ],
      "stateMutability": "view",
      "type": "function"
    },
    {
      "inputs": [],
      "name": "owner",
      "outputs": [
        {
          "internalType": "address",
          "name": "",
          "type": "address"
        }
      ],
      "stateMutability": "view",
      "type": "function"
    },
    {
      "inputs": [
        {
          "internalType": "uint8",
          "name": "_itemID",
          "type": "uint8"
        }
      ],
      "name": "redeemGameToken",
      "outputs": [],
      "stateMutability": "nonpayable",
      "type": "function"
    },
    {
      "inputs": [],
      "name": "symbol",
      "outputs": [
        {
          "internalType": "string",
          "name": "",
          "type": "string"
        }
      ],
      "stateMutability": "view",
      "type": "function"
    },
    {
      "inputs": [],
      "name": "totalSupply",
      "outputs": [
        {
          "internalType": "uint256",
          "name": "",
          "type": "uint256"
        }
      ],
      "stateMutability": "view",
      "type": "function"
    },
    {
      "inputs": [
        {
          "internalType": "address",
          "name": "to",
          "type": "address"
        },
        {
          "internalType": "uint256",
          "name": "value",
          "type": "uint256"
        }
      ],
      "name": "transfer",
      "outputs": [
        {
          "internalType": "bool",
          "name": "success",
          "type": "bool"
        }
      ],
      "stateMutability": "nonpayable",
      "type": "function"
    },
    {
      "inputs": [
        {
          "internalType": "address",
          "name": "from",
          "type": "address"
        },
        {
          "internalType": "address",
          "name": "to",
          "type": "address"
        },
        {
          "internalType": "uint256",
          "name": "value",
          "type": "uint256"
        }
      ],
      "name": "transferFrom",
      "outputs": [
        {
          "internalType": "bool",
          "name": "",
          "type": "bool"
        }
      ],
      "stateMutability": "nonpayable",
      "type": "function"
    }
  ],
  "bytecode": {
    "object": "0x60a06040523480156200001157600080fd5b50604051806040016040528060128152602001712232b3b2b71023b0b6b4b733902a37b5b2b760711b815250604051806040016040528060038152602001621111d560ea1b81525081600390816200006a9190620002b4565b506004620000798282620002b4565b505033608052506200009430678ac7230489e800006200009a565b620003a8565b6001600160a01b038216620000ca5760405163ec442f0560e01b8152600060048201526024015b60405180910390fd5b620000d860008383620000dc565b5050565b6001600160a01b0383166200010b578060026000828254620000ff919062000380565b909155506200017f9050565b6001600160a01b03831660009081526020819052604090205481811015620001605760405163391434e360e21b81526001600160a01b03851660048201526024810182905260448101839052606401620000c1565b6001600160a01b03841660009081526020819052604090209082900390555b6001600160a01b0382166200019d57600280548290039055620001bc565b6001600160a01b03821660009081526020819052604090208054820190555b816001600160a01b0316836001600160a01b03167fddf252ad1be2c89b69c2b068fc378daa952ba7f163c4a11628f55a4df523b3ef836040516200020291815260200190565b60405180910390a3505050565b634e487b7160e01b600052604160045260246000fd5b600181811c908216806200023a57607f821691505b6020821081036200025b57634e487b7160e01b600052602260045260246000fd5b50919050565b601f821115620002af57600081815260208120601f850160051c810160208610156200028a5750805b601f850160051c820191505b81811015620002ab5782815560010162000296565b5050505b505050565b81516001600160401b03811115620002d057620002d06200020f565b620002e881620002e1845462000225565b8462000261565b602080601f831160018114620003205760008415620003075750858301515b600019600386901b1c1916600185901b178555620002ab565b600085815260208120601f198616915b82811015620003515788860151825594840194600190910190840162000330565b5085821015620003705787850151600019600388901b60f8161c191681555b5050505050600190811b01905550565b80820180821115620003a257634e487b7160e01b600052601160045260246000fd5b92915050565b608051610eb5620003d2600039600081816101c20152818161036001526103ed0152610eb56000f3fe608060405234801561001057600080fd5b50600436106100f55760003560e01c806350011f4611610097578063a9059cbb11610066578063a9059cbb14610204578063dd62ed3e14610217578063ececd6be14610250578063ee63b85e1461026357600080fd5b806350011f461461019757806370a08231146101aa5780638da5cb5b146101bd57806395d89b41146101fc57600080fd5b806323b872dd116100d357806323b872dd1461014d578063313ce5671461016057806340c10f191461016f57806342966c681461018457600080fd5b806306fdde03146100fa578063095ea7b31461011857806318160ddd1461013b575b600080fd5b610102610285565b60405161010f9190610a36565b60405180910390f35b61012b610126366004610a65565b610317565b604051901515815260200161010f565b6002545b60405190815260200161010f565b61012b61015b366004610a8f565b610331565b6040516012815260200161010f565b61018261017d366004610a65565b610355565b005b610182610192366004610acb565b6103ac565b6101826101a5366004610ae4565b6103e2565b61013f6101b8366004610b5c565b6104c9565b6101e47f000000000000000000000000000000000000000000000000000000000000000081565b6040516001600160a01b03909116815260200161010f565b6101026104e7565b61012b610212366004610a65565b6104f6565b61013f610225366004610b77565b6001600160a01b03918216600090815260016020908152604080832093909416825291909152205490565b61018261025e366004610baa565b61055d565b610276610271366004610acb565b6105d3565b60405161010f93929190610bcd565b60606003805461029490610c01565b80601f01602080910402602001604051908101604052809291908181526020018280546102c090610c01565b801561030d5780601f106102e25761010080835404028352916020019161030d565b820191906000526020600020905b8154815290600101906020018083116102f057829003601f168201915b5050505050905090565b600033610325818585610688565b60019150505b92915050565b60003361033f85828561069a565b61034a858585610718565b506001949350505050565b336001600160a01b037f0000000000000000000000000000000000000000000000000000000000000000161461039e576040516330cd747160e01b815260040160405180910390fd5b6103a88282610777565b5050565b806103b6336104c9565b10156103d557604051631e9acf1760e31b815260040160405180910390fd5b6103df33826107ad565b50565b336001600160a01b037f0000000000000000000000000000000000000000000000000000000000000000161461042b576040516330cd747160e01b815260040160405180910390fd5b6005805490600061043b83610c51565b9091555050600554600090815260066020526040902080546001600160a01b0319163317815560018101610470848683610cce565b50600281018290556005546000908152600660205260409020815481546001600160a01b0319166001600160a01b0390911617815581906001808201906104b990840182610d8f565b5060029182015491015550505050565b6001600160a01b03811660009081526020819052604081205461032b565b60606004805461029490610c01565b600081610502336104c9565b101561054c5760405162461bcd60e51b8152602060048201526014602482015273496e73756666696369656e742062616c616e636560601b60448201526064015b60405180910390fd5b61055683836107e3565b9392505050565b6005548160ff16106105825760405163d3ed043d60e01b815260040160405180910390fd5b60ff8116600090815260066020526040902080546002909101546105af916001600160a01b0316906104f6565b5060ff16600090815260066020526040902080546001600160a01b03191633179055565b600660205260009081526040902080546001820180546001600160a01b0390921692916105ff90610c01565b80601f016020809104026020016040519081016040528092919081815260200182805461062b90610c01565b80156106785780601f1061064d57610100808354040283529160200191610678565b820191906000526020600020905b81548152906001019060200180831161065b57829003601f168201915b5050505050908060020154905083565b61069583838360016107f1565b505050565b6001600160a01b038381166000908152600160209081526040808320938616835292905220546000198114610712578181101561070357604051637dc7a0d960e11b81526001600160a01b03841660048201526024810182905260448101839052606401610543565b610712848484840360006107f1565b50505050565b6001600160a01b03831661074257604051634b637e8f60e11b815260006004820152602401610543565b6001600160a01b03821661076c5760405163ec442f0560e01b815260006004820152602401610543565b6106958383836108c6565b6001600160a01b0382166107a15760405163ec442f0560e01b815260006004820152602401610543565b6103a8600083836108c6565b6001600160a01b0382166107d757604051634b637e8f60e11b815260006004820152602401610543565b6103a8826000836108c6565b600033610325818585610718565b6001600160a01b03841661081b5760405163e602df0560e01b815260006004820152602401610543565b6001600160a01b03831661084557604051634a1406b160e11b815260006004820152602401610543565b6001600160a01b038085166000908152600160209081526040808320938716835292905220829055801561071257826001600160a01b0316846001600160a01b03167f8c5be1e5ebec7d5bd14f71427d1e84f3dd0314c0f7b2291e5b200ac8c7c3b925846040516108b891815260200190565b60405180910390a350505050565b6001600160a01b0383166108f15780600260008282546108e69190610e6c565b909155506109639050565b6001600160a01b038316600090815260208190526040902054818110156109445760405163391434e360e21b81526001600160a01b03851660048201526024810182905260448101839052606401610543565b6001600160a01b03841660009081526020819052604090209082900390555b6001600160a01b03821661097f5760028054829003905561099e565b6001600160a01b03821660009081526020819052604090208054820190555b816001600160a01b0316836001600160a01b03167fddf252ad1be2c89b69c2b068fc378daa952ba7f163c4a11628f55a4df523b3ef836040516109e391815260200190565b60405180910390a3505050565b6000815180845260005b81811015610a16576020818501810151868301820152016109fa565b506000602082860101526020601f19601f83011685010191505092915050565b60208152600061055660208301846109f0565b80356001600160a01b0381168114610a6057600080fd5b919050565b60008060408385031215610a7857600080fd5b610a8183610a49565b946020939093013593505050565b600080600060608486031215610aa457600080fd5b610aad84610a49565b9250610abb60208501610a49565b9150604084013590509250925092565b600060208284031215610add57600080fd5b5035919050565b600080600060408486031215610af957600080fd5b833567ffffffffffffffff80821115610b1157600080fd5b818601915086601f830112610b2557600080fd5b813581811115610b3457600080fd5b876020828501011115610b4657600080fd5b6020928301989097509590910135949350505050565b600060208284031215610b6e57600080fd5b61055682610a49565b60008060408385031215610b8a57600080fd5b610b9383610a49565b9150610ba160208401610a49565b90509250929050565b600060208284031215610bbc57600080fd5b813560ff8116811461055657600080fd5b6001600160a01b0384168152606060208201819052600090610bf1908301856109f0565b9050826040830152949350505050565b600181811c90821680610c1557607f821691505b602082108103610c3557634e487b7160e01b600052602260045260246000fd5b50919050565b634e487b7160e01b600052601160045260246000fd5b600060018201610c6357610c63610c3b565b5060010190565b634e487b7160e01b600052604160045260246000fd5b601f82111561069557600081815260208120601f850160051c81016020861015610ca75750805b601f850160051c820191505b81811015610cc657828155600101610cb3565b505050505050565b67ffffffffffffffff831115610ce657610ce6610c6a565b610cfa83610cf48354610c01565b83610c80565b6000601f841160018114610d2e5760008515610d165750838201355b600019600387901b1c1916600186901b178355610d88565b600083815260209020601f19861690835b82811015610d5f5786850135825560209485019460019092019101610d3f565b5086821015610d7c5760001960f88860031b161c19848701351681555b505060018560011b0183555b5050505050565b818103610d9a575050565b610da48254610c01565b67ffffffffffffffff811115610dbc57610dbc610c6a565b610dd081610dca8454610c01565b84610c80565b6000601f821160018114610e045760008315610dec5750848201545b600019600385901b1c1916600184901b178455610d88565b600085815260209020601f19841690600086815260209020845b83811015610e3e5782860154825560019586019590910190602001610e1e565b5085831015610e5c5781850154600019600388901b60f8161c191681555b5050505050600190811b01905550565b8082018082111561032b5761032b610c3b56fea26469706673582212204a5f58407b740dc590e64720d2e24c1be2695562f25df14ea84c2be84dd67f3864736f6c63430008150033",
    "linkReferences": {}
  },
  "methodIdentifiers": {
    "IdToGameItemsInfo(uint256)": "ee63b85e",
    "allowance(address,address)": "dd62ed3e",
    "approve(address,uint256)": "095ea7b3",
    "balanceOf(address)": "70a08231",
    "burn(uint256)": "42966c68",
    "createGameItemsInfo(string,uint256)": "50011f46",
    "decimals()": "313ce567",
    "mint(address,uint256)": "40c10f19",
    "name()": "06fdde03",
    "owner()": "8da5cb5b",
    "redeemGameToken(uint8)": "ececd6be",
    "symbol()": "95d89b41",
    "totalSupply()": "18160ddd",
    "transfer(address,uint256)": "a9059cbb",
    "transferFrom(address,address,uint256)": "23b872dd"
  },
  "id": 0
}